S01300004C6F6164657252533233322E737265637E
S1131E0012C021C020C01FC01EC01DC01CC01BC0EA
S1131E101AC019C018C017C016C015C014C013C00A
S1131E2012C011C010C011241FBEC0E0D0E0DEBF3C
S1131E30CDBF20E0A0E6B0E001C01D92A536B207F8
S10F1E40E1F704D001C0DCCFF894FFCF20
S1131E4CEF92FF920F931F93CF93DF9382E08BB9A2
S1131E5C88E18AB986E080BD10BC19B886EE8CB9CD
S1131E6C85EA8CB91092630010926200109264009F
S1131E7C80E090E000005F9B10C04CB14093640084
S1131E8C413F59F48EEA8CB988EC00008150E9F793
S1131E9C88E08CB980E18CB954C0019690936300AE
S1131EAC8093620080364AEE940721F74AC05F9B08
S1131EBCFECF8CB180936400813F09F04EC05F9BD0
S1131ECCFECF8CB1B82FA0E0B0936300A093620056
S1131EDC5F9BFECF8CB1BD01682B70936300609344
S1131EEC6200CE015F9BFECF4CB1342F20E03093C7
S1131EFC6100209360005F9BFECF4CB1F901E42B91
S1131F0CAF015093610040936000FC01E60FF71F92
S1131F1C0A0110935700E895112402968034910518
S1131F2C09F7FB01E0925700E89507B600FCFDCFDA
S1131F3CFB01F0925700E89507B600FCFDCF0CB9F5
S1131F4C0CC0C0E0D0E011E00F2EF3E0EF2EF02D2A
S1131F5C0F2EF5E0FF2EF02D05EF80916400813FEC
S1131F6C09F4A5CF1AB8E0E0F0E0099480E090E021
S1111F7CDF91CF911F910F91FF90EF90089588
S9031E00DE
